{
    "contractName": "Seller",
    "abi": [
        {
            "inputs": [
                {
                    "internalType": "address payable",
                    "name": "_beneficiary",
                    "type": "address"
                }
            ],
            "stateMutability": "nonpayable",
            "type": "constructor"
        },
        {
            "anonymous": false,
            "inputs": [
                {
                    "indexed": false,
                    "internalType": "address",
                    "name": "owner",
                    "type": "address"
                },
                {
                    "indexed": false,
                    "internalType": "string",
                    "name": "reference_uri",
                    "type": "string"
                },
                {
                    "indexed": false,
                    "internalType": "uint256",
                    "name": "amount",
                    "type": "uint256"
                }
            ],
            "name": "RegisterItem",
            "type": "event"
        },
        {
            "inputs": [],
            "name": "seller_address",
            "outputs": [
                {
                    "internalType": "address payable",
                    "name": "",
                    "type": "address"
                }
            ],
            "stateMutability": "view",
            "type": "function"
        }
    ],
    "bytecode": "608060405234801561001057600080fd5b506040516100f83803806100f88339818101604052602081101561003357600080fd5b5051600080546001600160a01b039092166001600160a01b03199092169190911790556094806100646000396000f3fe6080604052348015600f57600080fd5b506004361060285760003560e01c806395ee3ce014602d575b600080fd5b6033604f565b604080516001600160a01b039092168252519081900360200190f35b6000546001600160a01b03168156fea264697066735822122001f472346aabef3eefbb26e3a867e4d31e4510d08a64aecf2698ee284934b9ed64736f6c63430006010033",
    "sourcePath": "c:/Users/Manpreet/OneDrive/Columbia University FinTech/Team-MAWK---Project-3/Seller.sol",
    "compiler": {
        "name": "solc",
        "version": "0.6.1+commit.e6f7d5a4"
    },
    "functionHashes": {
        "seller_address()": "95ee3ce0"
    },
    "gasEstimates": {
        "creation": {
            "codeDepositCost": "29600",
            "executionCost": "infinite",
            "totalCost": "infinite"
        },
        "external": {
            "seller_address()": "1015"
        }
    }
}