{
    "contractName": "Seller",
    "abi": [
        {
            "inputs": [
                {
                    "internalType": "address payable",
                    "name": "_beneficiary",
                    "type": "address"
                }
            ],
            "stateMutability": "nonpayable",
            "type": "constructor"
        },
        {
            "anonymous": false,
            "inputs": [
                {
                    "indexed": false,
                    "internalType": "address",
                    "name": "seller",
                    "type": "address"
                }
            ],
            "name": "RegisterSeller",
            "type": "event"
        },
        {
            "inputs": [],
            "name": "isExist",
            "outputs": [
                {
                    "internalType": "bool",
                    "name": "",
                    "type": "bool"
                }
            ],
            "stateMutability": "view",
            "type": "function"
        },
        {
            "inputs": [],
            "name": "seller_address",
            "outputs": [
                {
                    "internalType": "address payable",
                    "name": "",
                    "type": "address"
                }
            ],
            "stateMutability": "view",
            "type": "function"
        }
    ],
    "bytecode": "608060405234801561001057600080fd5b506040516101393803806101398339818101604052602081101561003357600080fd5b50516000805460ff60a01b196001600160a01b039093166001600160a01b03199091161791909116600160a01b17905560c8806100716000396000f3fe6080604052348015600f57600080fd5b506004361060325760003560e01c8063475502be14603757806395ee3ce0146051575b600080fd5b603d6073565b604080519115158252519081900360200190f35b60576083565b604080516001600160a01b039092168252519081900360200190f35b600054600160a01b900460ff1681565b6000546001600160a01b03168156fea26469706673582212208086e6b1bcc8a948422deeae2eb6694899cbdf71ca33639d45aef822558f0bfa64736f6c63430006010033",
    "sourcePath": "c:/Users/Manpreet/OneDrive/Columbia University FinTech/Team-MAWK---Project-3/Seller.sol",
    "compiler": {
        "name": "solc",
        "version": "0.6.1+commit.e6f7d5a4"
    },
    "functionHashes": {
        "isExist()": "475502be",
        "seller_address()": "95ee3ce0"
    },
    "gasEstimates": {
        "creation": {
            "codeDepositCost": "40000",
            "executionCost": "infinite",
            "totalCost": "infinite"
        },
        "external": {
            "isExist()": "1005",
            "seller_address()": "1037"
        }
    }
}